S00C00006C6162322E73726563B7
S113000065C0000081C0000016C10000D3C000001C
S11300107AC0000078C0000076C0000074C0000000
S113002072C0000070C000006EC000006CC0000010
S11300306AC0000068C0000066C0000064C0000020
S113004062C0000060C000005EC000005CC0000030
S11300505AC0000058C0000056C0000054C0000040
S113006052C0000050C000004EC000004CC0000050
S11300704AC0000048C0000046C0000044C0000060
S113008042C0000040C000003EC000003CC0000070
S11300903AC0000038C0000036C0000034C0000080
S11300A032C0000030C000002EC000002CC0000090
S11300B02AC0000028C0000026C0000024C00000A0
S11300C022C0000020C000001EC0000011241FBE7A
S11300D0CFEFD1E2DEBFCDBF12E0A0E0B2E0EAEFA5
S11300E0F2E000E00BBF02C007900D92A430B1070C
S11300F0D9F722E0A4E0B2E001C01D92A530B20716
S1130100E1F7C2D0F8C07CCF1F920F920FB60F92C6
S113011011248F939F93F8949091020281E0892790
S11301208093020278949F918F910F900FBE0F904D
S11301301F901895009749F00197E9EFF0E0319787
S1130140F1F700C000000097B9F70895809102020A
S1130150811102C015B8089580910402813041F0E4
S113016018F0823041F0089585B1809585B90895DD
S11301708FEF85B9089585B1880F85B9299903C092
S113018085B18F5F85B90895809100029091010235
S113019080579E4F893E23E0920728F490930102F2
S11301A080930002089588EC90E09093010280937C
S11301B0000208951F920F920FB60F9211240BB6EE
S11301C00F922F933F934F935F936F937F938F93EC
S11301D09F93AF93BF93EF93FF93F894D5DF7894F5
S11301E0FF91EF91BF91AF919F918F917F916F910B
S11301F05F914F913F912F910F900BBE0F900FBEC7
S11302000F901F9018958091040290E0019663E08E
S113021070E04AD080930402813039F018F08230C3
S113022039F008958FEF85B908958FEF85B9089552
S11302308AEA85B908951F920F920FB60F9211247E
S11302400BB60F922F933F934F935F936F937F93CC
S11302508F939F93AF93BF93EF93FF93F894D3DF60
S11302607894FF91EF91BF91AF919F918F917F917E
S11302706F915F914F913F912F910F900BBE0F9013
S11302800FBE0F901F90189511B88FEF84B98FE3AC
S11302908093690087E08DBB789458DF80910002D9
S11302A09091010247DFF9CF97FB072E16F40094D3
S11302B006D077FD08D00BD007FC05D03EF490950E
S11302C081959F4F0895709561957F4F0895AA1B5E
S11302D0BB1B51E107C0AA1FBB1FA617B70710F02D
S11302E0A61BB70B881F991F5A95A9F7809590955F
S10D02F0BC01CD010895F894FFCF7E
S10702FAC800010033
S9030000FC
