:020000020000FC
:040000000C94340028
:100064000C94A40008D026B5203011F00C9435006F
:100074000E945800F8CF2FEF24B920BB2FE3209320
:10008400690027E02DBB21E021BB3AEF37BD22E018
:1000940024BD25E025BD20E92093C10026E020935E
:1000A400C40001E04FEF45B978940895013019F088
:1000B400222725B90895103021F0113029F012308B
:1000C40031F0409545B908954FEF45B908954095ED
:1000D40045B908950895003011F000E0089501E055
:1000E40008951395133011F00C94790011271030F2
:1000F40021F0113059F0123091F022E024BD25E0B6
:1001040025BD4FEF45B921E021BB089520E424BD6E
:1001140025E025BD4FEF45B922E021BB089523E436
:1001240024BD2DE025BD4AEA45B924E021BB08954C
:1001340008953A3F11F00C94A00030E022E3320F0E
:1001440037BD0895F8945091C6005D3621F05237BA
:1001540031F0533741F00E947300789418950E944F
:100164006D00789418950E949B0078941895789463
:020174001895DC
:00000001FF
