:020000020000FC
:100000000C9408000C943B000C9442000C946F007C
:1000100008D026B5203011F00C9409000E9426006B
:10002000F8CF78942FEF24B920BB2FE320936900F9
:1000300027E02DBB21E021BB3AEF37BD22E024BDF4
:1000400025E025BD01E04FEF45B90895013019F0D5
:10005000222725B90895103021F0113029F01230EF
:1000600031F0409545B908954FEF45B90895409551
:1000700045B908950895F894003009F000E001E0D2
:1000800078941895F8941395133011F00C94490056
:100090001127103021F0113061F01230A1F022E070
:1000A00024BD25E025BD4FEF45B921E021BB789463
:1000B000189520E424BD25E025BD4FEF45B922E089
:1000C00021BB7894189523E424BD2DE025BD4AEA90
:1000D00045B924E021BB7894189578941895F89444
:1000E0003A3F11F00C94750030E022E3320F37BD37
:0400F0007894189553
:00000001FF
