S00C00006C6162312E73726563B8
S113000065C0000080C000007EC000007CC000000D
S11300107AC0000078C0000076C0000074C0000000
S113002072C0000070C000006EC000006CC0000010
S11300306AC0000068C0000066C0000064C0000020
S113004062C0000060C000005EC000005CC0000030
S11300505AC0000058C0000056C0000054C0000040
S113006052C0000050C000004EC000004CC0000050
S11300704AC0000048C0000046C0000044C0000060
S113008042C0000040C000003EC000003CC0000070
S11300903AC0000038C0000036C0000034C0000080
S11300A032C0000030C000002EC000002CC0000090
S11300B02AC0000028C0000026C0000024C00000A0
S11300C022C0000020C000001EC0000011241FBE7A
S11300D0CFEFD1E2DEBFCDBF12E0A0E0B2E0E2E3B9
S11300E0F2E000E00BBF02C007900D92A430B1070C
S11300F0D9F722E0A4E0B2E001C01D92A530B20716
S1130100E1F755D094C07CCF009749F00197E9EF0F
S1130110F0E03197F1F700C000000097B9F70895B7
S113012080910202811102C015B8089580910402E1
S1130130813041F018F0823041F0089585B1809506
S113014085B908958FEF85B9089585B1809585B9EE
S11301500895809100029091010280579E4F893E3C
S113016023E0920728F490930102809300020895FB
S113017088EC90E0909301028093000208958091AE
S1130180040290E0019663E070E02AD080930402B8
S1130190813039F018F0823039F008958FEF85B945
S11301A008958FEF85B908958AEA85B9089511B83D
S11301B08FEF84B9C1E0009B06C0809102028C27B6
S11301C08093020206C0019B02C0D9DF02C00299DB
S11301D0C0DFA6DF809100029091010295DFEBCF92
S11301E097FB072E16F4009406D077FD08D00BD0A9
S11301F007FC05D03EF4909581959F4F0895709526
S113020061957F4F0895AA1BBB1B51E107C0AA1F2C
S1130210BB1FA617B70710F0A61BB70B881F991FA3
S11302205A95A9F780959095BC01CD010895F8944D
S1050230FFCFFA
S1070232C8000100FB
S9030000FC
