:1000000065C0000081C00000E9C0000093C000008E
:100010007AC0000078C0000076C0000074C0000004
:1000200072C0000070C000006EC000006CC0000014
:100030006AC0000068C0000066C0000064C0000024
:1000400062C0000060C000005EC000005CC0000034
:100050005AC0000058C0000056C0000054C0000044
:1000600052C00000E4C000004EC000004CC00000C0
:100070004AC0000048C0000046C0000044C0000064
:1000800042C0000040C000003EC000003CC0000074
:100090003AC0000038C0000036C0000034C0000084
:1000A00032C0000030C000002EC000002CC0000094
:1000B0002AC0000028C0000026C0000024C00000A4
:1000C00022C0000020C000001EC0000011241FBE7E
:1000D000CFEFD1E2DEBFCDBF12E0A0E0B2E0E2E3BD
:1000E000F3E000E00BBF02C007900D92A230B10711
:1000F000D9F722E0A2E0B2E001C01D92A730B2071A
:10010000E1F7D1D014C17CCF1F920F920FB60F929E
:1001100011248F939F93F8949091000281E0892796
:100120008093000278949F918F910F900FBE0F9053
:100130001F9018951F920F920FB60F9211248F9354
:10014000F89487B5885387BD87B578948F910F90C1
:100150000FBE0F901F90189580910002811102C070
:1001600015B8089580910202813041F018F0823074
:1001700041F0089585B1809585B908958FEF85B9CF
:10018000089585B1880F85B9299903C085B18F5F1E
:1001900085B908958091020290E0019663E070E0D5
:1001A0009FD080930202813059F018F0823079F0AC
:1001B000089582E084BD8FEF85B981E081BB089509
:1001C00080E484BD8FEF85B982E081BB089583E030
:1001D00084BD8AEA85B984E081BB08951F920F929D
:1001E0000FB60F9211240BB60F922F933F934F939C
:1001F0005F936F937F938F939F93AF93BF93EF938F
:10020000FF93F894C7DF7894FF91EF91BF91AF917E
:100210009F918F917F916F915F914F913F912F911E
:100220000F900BBE0F900FBE0F901F9018951F924E
:100230000F920FB60F9211240BB60F922F933F938C
:100240004F935F936F937F938F939F93AF93BF93DE
:10025000EF93FF938091C60080930502823731F0BF
:10026000833751F08D3661F495DF0AC0909100021A
:1002700081E089278093000287B5885387BD87B5C1
:10028000FF91EF91BF91AF919F918F917F916F916E
:100290005F914F913F912F910F900BBE0F900FBE2A
:1002A0000F901F90189511B88FEF84B980BB8FE322
:1002B0008093690087E08DBB81E081BB88EC87BDBE
:1002C00082E084BD85E085BD80E98093C10086E041
:1002D0008093C400789486B58130E9F73DDFFBCF89
:1002E00097FB072E16F4009406D077FD08D00BD0AC
:1002F00007FC05D03EF4909581959F4F0895709529
:1003000061957F4F0895AA1BBB1B51E107C0AA1F2F
:10031000BB1FA617B70710F0A61BB70B881F991FA6
:100320005A95A9F780959095BC01CD010895F89450
:02033000FFCFFD
:020332000100C8
:00000001FF
