:1000000065C0000080C000007EC000007CC0000011
:100010007AC0000078C0000076C0000074C0000004
:1000200072C0000070C000006EC000006CC0000014
:100030006AC0000068C0000066C0000064C0000024
:1000400062C0000060C000005EC000005CC0000034
:100050005AC0000058C0000056C0000054C0000044
:1000600052C00000A1C000004EC000004CC0000003
:100070004AC0000048C0000046C0000044C0000064
:1000800042C0000040C000003EC000003CC0000074
:100090003AC0000038C0000036C0000034C0000084
:1000A00032C0000030C000002EC000002CC0000094
:1000B0002AC0000028C0000026C0000024C00000A4
:1000C00022C0000020C000001EC0000011241FBE7E
:1000D000CFEFD1E2DEBFCDBF12E0A0E0B2E0E8EAB0
:1000E000F2E000E00BBF02C007900D92A230B10712
:1000F000D9F722E0A2E0B2E001C01D92A530B2071C
:10010000E1F78CD0CFC07CCF809100028A3F10F005
:1001100010920002809100028E5C8093000287BDE5
:10012000089580910102811102C015B8089580914F
:100130000202813041F018F0823041F0089585B11B
:10014000809585B908958FEF85B9089585B180951B
:1001500085B908958091020290E0019663E070E015
:100160007AD080930202813069F018F0823099F0E1
:10017000089582E084BD85E085BD8FEF85B981E07B
:1001800081BB089580E484BD85E085BD8FEF85B98E
:1001900082E081BB08958DE085BD83E484BD8AEA59
:1001A00085B984E081BB08951F920F920FB60F921C
:1001B00011240BB60F922F933F934F935F936F933E
:1001C0007F938F939F93AF93BF93EF93FF93809110
:1001D000C60080930302823731F0833759F08D36A1
:1001E00051F4B8DF08C09091010281E08927809323
:1001F000010201C089DFFF91EF91BF91AF919F9103
:100200008F917F916F915F914F913F912F910F90BF
:100210000BBE0F900FBE0F901F90189511B88FEF67
:1002200084B980BB8FE38093690087E08DBB81E058
:1002300081BB82E387BD82E084BD85E085BD80E926
:100240008093C10086E08093C400789486B58111C4
:10025000FDCF67DFFBCF97FB072E16F4009406D087
:1002600077FD08D00BD007FC05D03EF49095819522
:100270009F4F0895709561957F4F0895AA1BBB1BF2
:1002800051E107C0AA1FBB1FA617B70710F0A61B96
:10029000B70B881F991F5A95A9F780959095BC01B7
:0802A000CD010895F894FFCF91
:0202A800320121
:00000001FF
